{
  "contractName": "Staking",
  "abi": [
    {
      "inputs": [
        {
          "internalType": "address",
          "name": "token",
          "type": "address"
        },
        {
          "internalType": "address",
          "name": "slasher",
          "type": "address"
        }
      ],
      "stateMutability": "nonpayable",
      "type": "constructor"
    },
    {
      "anonymous": false,
      "inputs": [
        {
          "indexed": true,
          "internalType": "address",
          "name": "owner",
          "type": "address"
        },
        {
          "indexed": false,
          "internalType": "uint256",
          "name": "amount",
          "type": "uint256"
        },
        {
          "indexed": false,
          "internalType": "bytes32",
          "name": "poolId",
          "type": "bytes32"
        },
        {
          "indexed": false,
          "internalType": "uint256",
          "name": "nonce",
          "type": "uint256"
        },
        {
          "indexed": false,
          "internalType": "uint64",
          "name": "slashedAtStart",
          "type": "uint64"
        },
        {
          "indexed": false,
          "internalType": "uint256",
          "name": "time",
          "type": "uint256"
        }
      ],
      "name": "LogBond",
      "type": "event"
    },
    {
      "anonymous": false,
      "inputs": [
        {
          "indexed": true,
          "internalType": "bytes32",
          "name": "poolId",
          "type": "bytes32"
        },
        {
          "indexed": false,
          "internalType": "uint256",
          "name": "newSlashPts",
          "type": "uint256"
        },
        {
          "indexed": false,
          "internalType": "uint256",
          "name": "time",
          "type": "uint256"
        }
      ],
      "name": "LogSlash",
      "type": "event"
    },
    {
      "anonymous": false,
      "inputs": [
        {
          "indexed": true,
          "internalType": "address",
          "name": "owner",
          "type": "address"
        },
        {
          "indexed": true,
          "internalType": "bytes32",
          "name": "bondId",
          "type": "bytes32"
        },
        {
          "indexed": false,
          "internalType": "uint64",
          "name": "willUnlock",
          "type": "uint64"
        },
        {
          "indexed": false,
          "internalType": "uint256",
          "name": "time",
          "type": "uint256"
        }
      ],
      "name": "LogUnbondRequested",
      "type": "event"
    },
    {
      "anonymous": false,
      "inputs": [
        {
          "indexed": true,
          "internalType": "address",
          "name": "owner",
          "type": "address"
        },
        {
          "indexed": true,
          "internalType": "bytes32",
          "name": "bondId",
          "type": "bytes32"
        },
        {
          "indexed": false,
          "internalType": "uint256",
          "name": "time",
          "type": "uint256"
        }
      ],
      "name": "LogUnbonded",
      "type": "event"
    },
    {
      "inputs": [
        {
          "internalType": "bytes32",
          "name": "",
          "type": "bytes32"
        }
      ],
      "name": "bonds",
      "outputs": [
        {
          "internalType": "bool",
          "name": "active",
          "type": "bool"
        },
        {
          "internalType": "uint64",
          "name": "slashedAtStart",
          "type": "uint64"
        },
        {
          "internalType": "uint64",
          "name": "willUnlock",
          "type": "uint64"
        }
      ],
      "stateMutability": "view",
      "type": "function"
    },
    {
      "inputs": [
        {
          "internalType": "bytes32",
          "name": "",
          "type": "bytes32"
        }
      ],
      "name": "slashPoints",
      "outputs": [
        {
          "internalType": "uint256",
          "name": "",
          "type": "uint256"
        }
      ],
      "stateMutability": "view",
      "type": "function"
    },
    {
      "inputs": [],
      "name": "slasherAddr",
      "outputs": [
        {
          "internalType": "address",
          "name": "",
          "type": "address"
        }
      ],
      "stateMutability": "view",
      "type": "function"
    },
    {
      "inputs": [],
      "name": "tokenAddr",
      "outputs": [
        {
          "internalType": "address",
          "name": "",
          "type": "address"
        }
      ],
      "stateMutability": "view",
      "type": "function"
    },
    {
      "inputs": [
        {
          "internalType": "bytes32",
          "name": "poolId",
          "type": "bytes32"
        },
        {
          "internalType": "uint256",
          "name": "pts",
          "type": "uint256"
        }
      ],
      "name": "slash",
      "outputs": [],
      "stateMutability": "nonpayable",
      "type": "function"
    },
    {
      "inputs": [
        {
          "components": [
            {
              "internalType": "uint256",
              "name": "amount",
              "type": "uint256"
            },
            {
              "internalType": "bytes32",
              "name": "poolId",
              "type": "bytes32"
            },
            {
              "internalType": "uint256",
              "name": "nonce",
              "type": "uint256"
            }
          ],
          "internalType": "struct BondLibrary.Bond",
          "name": "bond",
          "type": "tuple"
        }
      ],
      "name": "addBond",
      "outputs": [],
      "stateMutability": "nonpayable",
      "type": "function"
    },
    {
      "inputs": [
        {
          "components": [
            {
              "internalType": "uint256",
              "name": "amount",
              "type": "uint256"
            },
            {
              "internalType": "bytes32",
              "name": "poolId",
              "type": "bytes32"
            },
            {
              "internalType": "uint256",
              "name": "nonce",
              "type": "uint256"
            }
          ],
          "internalType": "struct BondLibrary.Bond",
          "name": "bond",
          "type": "tuple"
        }
      ],
      "name": "requestUnbond",
      "outputs": [],
      "stateMutability": "nonpayable",
      "type": "function"
    },
    {
      "inputs": [
        {
          "components": [
            {
              "internalType": "uint256",
              "name": "amount",
              "type": "uint256"
            },
            {
              "internalType": "bytes32",
              "name": "poolId",
              "type": "bytes32"
            },
            {
              "internalType": "uint256",
              "name": "nonce",
              "type": "uint256"
            }
          ],
          "internalType": "struct BondLibrary.Bond",
          "name": "bond",
          "type": "tuple"
        }
      ],
      "name": "unbond",
      "outputs": [],
      "stateMutability": "nonpayable",
      "type": "function"
    },
    {
      "inputs": [
        {
          "components": [
            {
              "internalType": "uint256",
              "name": "amount",
              "type": "uint256"
            },
            {
              "internalType": "bytes32",
              "name": "poolId",
              "type": "bytes32"
            },
            {
              "internalType": "uint256",
              "name": "nonce",
              "type": "uint256"
            }
          ],
          "internalType": "struct BondLibrary.Bond",
          "name": "bond",
          "type": "tuple"
        },
        {
          "components": [
            {
              "internalType": "uint256",
              "name": "amount",
              "type": "uint256"
            },
            {
              "internalType": "bytes32",
              "name": "poolId",
              "type": "bytes32"
            },
            {
              "internalType": "uint256",
              "name": "nonce",
              "type": "uint256"
            }
          ],
          "internalType": "struct BondLibrary.Bond",
          "name": "newBond",
          "type": "tuple"
        }
      ],
      "name": "replaceBond",
      "outputs": [],
      "stateMutability": "nonpayable",
      "type": "function"
    },
    {
      "inputs": [
        {
          "internalType": "address",
          "name": "owner",
          "type": "address"
        },
        {
          "components": [
            {
              "internalType": "uint256",
              "name": "amount",
              "type": "uint256"
            },
            {
              "internalType": "bytes32",
              "name": "poolId",
              "type": "bytes32"
            },
            {
              "internalType": "uint256",
              "name": "nonce",
              "type": "uint256"
            }
          ],
          "internalType": "struct BondLibrary.Bond",
          "name": "bond",
          "type": "tuple"
        }
      ],
      "name": "getWithdrawAmount",
      "outputs": [
        {
          "internalType": "uint256",
          "name": "",
          "type": "uint256"
        }
      ],
      "stateMutability": "view",
      "type": "function"
    }
  ],
  "bytecode": "0x60c06040523480156200001157600080fd5b50604051620017e5380380620017e58339818101604052810190620000379190620000c4565b8173ffffffffffffffffffffffffffffffffffffffff1660808173ffffffffffffffffffffffffffffffffffffffff1660601b815250508073ffffffffffffffffffffffffffffffffffffffff1660a08173ffffffffffffffffffffffffffffffffffffffff1660601b81525050505062000153565b600081519050620000be8162000139565b92915050565b60008060408385031215620000d857600080fd5b6000620000e885828601620000ad565b9250506020620000fb85828601620000ad565b9150509250929050565b6000620001128262000119565b9050919050565b600073ffffffffffffffffffffffffffffffffffffffff82169050919050565b620001448162000105565b81146200015057600080fd5b50565b60805160601c60a05160601c61165462000191600039806101ff5280610a465250806104a252806107df5280610be95280610c1d52506116546000f3fe608060405234801561001057600080fd5b506004361061009e5760003560e01c8063ae8a269e11610066578063ae8a269e14610159578063b4dca72414610175578063b9ad7ea914610191578063e767ec7e146101c3578063e9d1251a146101df5761009e565b80631c77ff04146100a35780633708659d146100bf5780635fbe4d1d146100db578063649a2790146100f9578063ac20874d14610129575b600080fd5b6100bd60048036038101906100b89190610f84565b6101fd565b005b6100d960048036038101906100d49190610fe9565b610355565b005b6100e36104a0565b6040516100f09190611270565b60405180910390f35b610113600480360381019061010e9190610f1f565b6104c4565b6040516101209190611475565b60405180910390f35b610143600480360381019061013e9190610f5b565b61053a565b6040516101509190611475565b60405180910390f35b610173600480360381019061016e9190610fc0565b610552565b005b61018f600480360381019061018a9190610fc0565b610622565b005b6101ab60048036038101906101a69190610f5b565b61089a565b6040516101ba9392919061133e565b60405180910390f35b6101dd60048036038101906101d89190610fc0565b6108f9565b005b6101e7610a44565b6040516101f49190611270565b60405180910390f35b7f000000000000000000000000000000000000000000000000000000000000000073ffffffffffffffffffffffffffffffffffffffff163373ffffffffffffffffffffffffffffffffffffffff161461028b576040517f08c379a000000000000000000000000000000000000000000000000000000000815260040161028290611455565b60405180910390fd5b60006102b28260008086815260200190815260200160002054610a6890919063ffffffff16565b9050670de0b6b3a76400008111156102ff576040517f08c379a00000000000000000000000000000000000000000000000000000000081526004016102f6906113b5565b60405180910390fd5b8060008085815260200190815260200160002081905550827f0740069fc8d861d85bed3b65ac6808125d778ea56d9b8221d41a1203281f62eb82426040516103489291906114e3565b60405180910390a2505050565b600061036a3384610a8790919063ffffffff16565b905060006001600083815260200190815260200160002090508060000160009054906101000a900460ff166103d4576040517f08c379a00000000000000000000000000000000000000000000000000000000081526004016103cb90611375565b60405180910390fd5b836020015183602001511461041e576040517f08c379a000000000000000000000000000000000000000000000000000000000815260040161041590611435565b60405180910390fd5b610440848260000160019054906101000a900467ffffffffffffffff16610acc565b83600001511015610486576040517f08c379a000000000000000000000000000000000000000000000000000000000815260040161047d906113f5565b60405180910390fd5b610491848383610b53565b61049a83610622565b50505050565b7f000000000000000000000000000000000000000000000000000000000000000081565b600080600160006104de8686610a8790919063ffffffff16565b815260200190815260200160002090508060000160009054906101000a900460ff1661050e576000915050610534565b610530838260000160019054906101000a900467ffffffffffffffff16610acc565b9150505b92915050565b60006020528060005260406000206000915090505481565b60006105673383610a8790919063ffffffff16565b9050600060016000838152602001908152602001600020905060008160000160099054906101000a900467ffffffffffffffff1667ffffffffffffffff161180156105d357508060000160099054906101000a900467ffffffffffffffff1667ffffffffffffffff1642115b610612576040517f08c379a000000000000000000000000000000000000000000000000000000000815260040161060990611395565b60405180910390fd5b61061d838383610b53565b505050565b60006106373383610a8790919063ffffffff16565b90506001600082815260200190815260200160002060000160009054906101000a900460ff161561069d576040517f08c379a0000000000000000000000000000000000000000000000000000000008152600401610694906113d5565b60405180910390fd5b670de0b6b3a76400006000808460200151815260200190815260200160002054106106fd576040517f08c379a00000000000000000000000000000000000000000000000000000000081526004016106f490611415565b60405180910390fd5b6040518060600160405280600115158152602001600080856020015181526020019081526020016000205467ffffffffffffffff168152602001600067ffffffffffffffff168152506001600083815260200190815260200160002060008201518160000160006101000a81548160ff02191690831515021790555060208201518160000160016101000a81548167ffffffffffffffff021916908367ffffffffffffffff16021790555060408201518160000160096101000a81548167ffffffffffffffff021916908367ffffffffffffffff16021790555090505061080a7f000000000000000000000000000000000000000000000000000000000000000033308560000151610cae565b3373ffffffffffffffffffffffffffffffffffffffff167f32c3f8c5cea46ce4803829a315e5c219611031759200635880cac3933863f1928360000151846020015185604001516001600087815260200190815260200160002060000160019054906101000a900467ffffffffffffffff164260405161088e959493929190611490565b60405180910390a25050565b60016020528060005260406000206000915090508060000160009054906101000a900460ff16908060000160019054906101000a900467ffffffffffffffff16908060000160099054906101000a900467ffffffffffffffff16905083565b600061090e3383610a8790919063ffffffff16565b905060006001600083815260200190815260200160002090508060000160009054906101000a900460ff168015610967575060008160000160099054906101000a900467ffffffffffffffff1667ffffffffffffffff16145b6109a6576040517f08c379a000000000000000000000000000000000000000000000000000000000815260040161099d90611375565b60405180910390fd5b62278d0042018160000160096101000a81548167ffffffffffffffff021916908367ffffffffffffffff160217905550813373ffffffffffffffffffffffffffffffffffffffff167f8a13ed2fab6e07ff3236ef8d7dc89784369012af6ebf994c55a181fabb7bbde28360000160099054906101000a900467ffffffffffffffff1642604051610a3792919061150c565b60405180910390a3505050565b7f000000000000000000000000000000000000000000000000000000000000000081565b600080828401905083811015610a7d57600080fd5b8091505092915050565b60003082846000015185602001518660400151604051602001610aae9594939291906112c2565b60405160208183030381529060405280519060200120905092915050565b6000610b4b610af68367ffffffffffffffff16670de0b6b3a7640000610d3490919063ffffffff16565b610b3d610b2a6000808860200151815260200190815260200160002054670de0b6b3a7640000610d3490919063ffffffff16565b8660000151610d4e90919063ffffffff16565b610d8090919063ffffffff16565b905092915050565b6000610b77848360000160019054906101000a900467ffffffffffffffff16610acc565b9050600081856000015103905060016000858152602001908152602001600020600080820160006101000a81549060ff02191690556000820160016101000a81549067ffffffffffffffff02191690556000820160096101000a81549067ffffffffffffffff02191690555050610c0f7f00000000000000000000000000000000000000000000000000000000000000003384610dbf565b6000811115610c5857610c577f000000000000000000000000000000000000000000000000000000000000000073adbeef000000000000000000000000000000000083610dbf565b5b833373ffffffffffffffffffffffffffffffffffffffff167f287be44bba238338787974842dfe3d140232a2f6a08f85b23ea3ff8f17805f9442604051610c9f9190611475565b60405180910390a35050505050565b8373ffffffffffffffffffffffffffffffffffffffff166323b872dd8484846040518463ffffffff1660e01b8152600401610ceb9392919061128b565b600060405180830381600087803b158015610d0557600080fd5b505af1158015610d19573d6000803e3d6000fd5b50505050610d25610e42565b610d2e57600080fd5b50505050565b600082821115610d4357600080fd5b818303905092915050565b60008082840290506000841480610d6d575082848281610d6a57fe5b04145b610d7657600080fd5b8091505092915050565b6000808211610d8e57600080fd5b6000828481610d9957fe5b049050828481610da557fe5b06818402018414610db557600080fd5b8091505092915050565b8273ffffffffffffffffffffffffffffffffffffffff1663a9059cbb83836040518363ffffffff1660e01b8152600401610dfa929190611315565b600060405180830381600087803b158015610e1457600080fd5b505af1158015610e28573d6000803e3d6000fd5b50505050610e34610e42565b610e3d57600080fd5b505050565b600080600090503d60008114610e5f5760208114610e6857610e74565b60019150610e74565b60206000803e60005191505b50600081141591505090565b600081359050610e8f816115d9565b92915050565b600081359050610ea4816115f0565b92915050565b600060608284031215610ebc57600080fd5b610ec66060611535565b90506000610ed684828501610f0a565b6000830152506020610eea84828501610e95565b6020830152506040610efe84828501610f0a565b60408301525092915050565b600081359050610f1981611607565b92915050565b60008060808385031215610f3257600080fd5b6000610f4085828601610e80565b9250506020610f5185828601610eaa565b9150509250929050565b600060208284031215610f6d57600080fd5b6000610f7b84828501610e95565b91505092915050565b60008060408385031215610f9757600080fd5b6000610fa585828601610e95565b9250506020610fb685828601610f0a565b9150509250929050565b600060608284031215610fd257600080fd5b6000610fe084828501610eaa565b91505092915050565b60008060c08385031215610ffc57600080fd5b600061100a85828601610eaa565b925050606061101b85828601610eaa565b9150509250929050565b61102e81611573565b82525050565b61103d81611585565b82525050565b61104c81611591565b82525050565b600061105f600f83611562565b91507f424f4e445f4e4f545f41435449564500000000000000000000000000000000006000830152602082019050919050565b600061109f601183611562565b91507f424f4e445f4e4f545f554e4c4f434b45440000000000000000000000000000006000830152602082019050919050565b60006110df600c83611562565b91507f5054535f544f4f5f4849474800000000000000000000000000000000000000006000830152602082019050919050565b600061111f601383611562565b91507f424f4e445f414c52454144595f414354495645000000000000000000000000006000830152602082019050919050565b600061115f601083611562565b91507f4e45575f424f4e445f534d414c4c4552000000000000000000000000000000006000830152602082019050919050565b600061119f600c83611562565b91507f504f4f4c5f534c415348454400000000000000000000000000000000000000006000830152602082019050919050565b60006111df601183611562565b91507f504f4f4c5f49445f444946464552454e540000000000000000000000000000006000830152602082019050919050565b600061121f600c83611562565b91507f4f4e4c595f534c415348455200000000000000000000000000000000000000006000830152602082019050919050565b61125b816115bb565b82525050565b61126a816115c5565b82525050565b60006020820190506112856000830184611025565b92915050565b60006060820190506112a06000830186611025565b6112ad6020830185611025565b6112ba6040830184611252565b949350505050565b600060a0820190506112d76000830188611025565b6112e46020830187611025565b6112f16040830186611252565b6112fe6060830185611043565b61130b6080830184611252565b9695505050505050565b600060408201905061132a6000830185611025565b6113376020830184611252565b9392505050565b60006060820190506113536000830186611034565b6113606020830185611261565b61136d6040830184611261565b949350505050565b6000602082019050818103600083015261138e81611052565b9050919050565b600060208201905081810360008301526113ae81611092565b9050919050565b600060208201905081810360008301526113ce816110d2565b9050919050565b600060208201905081810360008301526113ee81611112565b9050919050565b6000602082019050818103600083015261140e81611152565b9050919050565b6000602082019050818103600083015261142e81611192565b9050919050565b6000602082019050818103600083015261144e816111d2565b9050919050565b6000602082019050818103600083015261146e81611212565b9050919050565b600060208201905061148a6000830184611252565b92915050565b600060a0820190506114a56000830188611252565b6114b26020830187611043565b6114bf6040830186611252565b6114cc6060830185611261565b6114d96080830184611252565b9695505050505050565b60006040820190506114f86000830185611252565b6115056020830184611252565b9392505050565b60006040820190506115216000830185611261565b61152e6020830184611252565b9392505050565b6000604051905081810181811067ffffffffffffffff8211171561155857600080fd5b8060405250919050565b600082825260208201905092915050565b600061157e8261159b565b9050919050565b60008115159050919050565b6000819050919050565b600073ffffffffffffffffffffffffffffffffffffffff82169050919050565b6000819050919050565b600067ffffffffffffffff82169050919050565b6115e281611573565b81146115ed57600080fd5b50565b6115f981611591565b811461160457600080fd5b50565b611610816115bb565b811461161b57600080fd5b5056fea2646970667358221220d4720152f30680fe7c39ded66d8bdf34b0480b8cde9cab3adb28e6a9ccb117cd64736f6c634300060c0033",
  "immutableReferences": {
    "2285": [
      {
        "length": 32,
        "start": 1186
      },
      {
        "length": 32,
        "start": 2015
      },
      {
        "length": 32,
        "start": 3049
      },
      {
        "length": 32,
        "start": 3101
      }
    ],
    "2287": [
      {
        "length": 32,
        "start": 511
      },
      {
        "length": 32,
        "start": 2630
      }
    ]
  },
  "source": "// SPDX-License-Identifier: agpl-3.0\npragma solidity ^0.6.12;\npragma experimental ABIEncoderV2;\n\nimport \"./libs/SafeMath.sol\";\nimport \"./libs/SafeERC20.sol\";\n\n// AIP: https://github.com/AdExNetwork/aips/issues/18\n// Quick overview:\n// - it's divided into pools, each pool may represent a validator; it may represent something else too (for example, we may launch staking for publishers to prove their legitimacy)\n// - the slasherAddr will be a multisig that will be controlled by the AdEx team - and later full control of the multisig will be given to a bridge to Polkadot, where we'll run the full on-chain slashing mechanism\n//   - we will clearly communicate this migration path to our community and stakers\n// - reward distribution is off-chain: depending on the pool, it may be done either via OUTPACE, via the Polkadot parachain, or via an auxilary contract that implements round-based reward distribution (you check into each round, the SC confirms you have a bond on Staking.sol, and you can withdraw your pro-rata earnings for the round)\n// - each bond will be slashed relative to the time it bonded/unbonded; e.g. if the pool is slashed 12%, you bonded, then the pool was slashed 2%, then you unbonded, you'd only suffer a 2% slash\n\nlibrary BondLibrary {\n\tstruct Bond {\n\t\tuint amount;\n\t\tbytes32 poolId;\n\t\tuint nonce;\n\t}\n\n\tfunction hash(Bond memory bond, address sender)\n\t\tinternal\n\t\tview\n\t\treturns (bytes32)\n\t{\n\t\treturn keccak256(abi.encode(\n\t\t\taddress(this),\n\t\t\tsender,\n\t\t\tbond.amount,\n\t\t\tbond.poolId,\n\t\t\tbond.nonce\n\t\t));\n\t}\n}\n\ncontract Staking {\n\tusing SafeMath for uint;\n\tusing BondLibrary for BondLibrary.Bond;\n\n\t// This fits in a storage slot so we can only use one when saving bond state\n\tstruct BondState {\n\t\tbool active;\n\t\t// Data type must be larger than MAX_SLASH (2**64 > 10**18)\n\t\tuint64 slashedAtStart;\n\t\tuint64 willUnlock;\n\t}\n\n\t// Events\n\tevent LogSlash(bytes32 indexed poolId, uint newSlashPts, uint time);\n\tevent LogBond(address indexed owner, uint amount, bytes32 poolId, uint nonce, uint64 slashedAtStart, uint time);\n\tevent LogUnbondRequested(address indexed owner, bytes32 indexed bondId, uint64 willUnlock, uint time);\n\tevent LogUnbonded(address indexed owner, bytes32 indexed bondId, uint time);\n\n\t// could be 2**64 too, since we use uint64\n\tuint constant MAX_SLASH = 10 ** 18;\n\tuint constant TIME_TO_UNBOND = 30 days;\n\t// A non-0x00 address since some ERC20 tokens do not allow sending to 0x00; although we intend to only use this contract with ADX\n\taddress constant BURN_ADDR = address(0xaDbeEF0000000000000000000000000000000000);\n\n\taddress public immutable tokenAddr;\n\taddress public immutable slasherAddr;\n\t// Addressed by poolId\n\tmapping (bytes32 => uint) public slashPoints;\n\t// Addressed by bondId\n\tmapping (bytes32 => BondState) public bonds;\n\n\tconstructor(address token, address slasher) public {\n   \t\ttokenAddr = token;\n   \t\tslasherAddr = slasher;\n\t}\n\n\tfunction slash(bytes32 poolId, uint pts) external {\n\t\trequire(msg.sender == slasherAddr, 'ONLY_SLASHER');\n\t\tuint newSlashPts = slashPoints[poolId].add(pts);\n\t\trequire(newSlashPts <= MAX_SLASH, 'PTS_TOO_HIGH');\n\t\tslashPoints[poolId] = newSlashPts;\n\t\temit LogSlash(poolId, newSlashPts, now);\n\t}\n\n\tfunction addBond(BondLibrary.Bond memory bond) public {\n\t\tbytes32 id = bond.hash(msg.sender);\n\t\trequire(!bonds[id].active, 'BOND_ALREADY_ACTIVE');\n\t\trequire(slashPoints[bond.poolId] < MAX_SLASH, 'POOL_SLASHED');\n\t\tbonds[id] = BondState({\n\t\t\tactive: true,\n\t\t\tslashedAtStart: uint64(slashPoints[bond.poolId]),\n\t\t\twillUnlock: 0\n\t\t});\n\t\tSafeERC20.transferFrom(tokenAddr, msg.sender, address(this), bond.amount);\n\t\temit LogBond(msg.sender, bond.amount, bond.poolId, bond.nonce, bonds[id].slashedAtStart, now);\n\t}\n\n\tfunction requestUnbond(BondLibrary.Bond memory bond) public {\n\t\tbytes32 id = bond.hash(msg.sender);\n\t\tBondState storage bondState = bonds[id];\n\t\trequire(bondState.active && bondState.willUnlock == 0, 'BOND_NOT_ACTIVE');\n\t\tbondState.willUnlock = uint64(now + TIME_TO_UNBOND);\n\t\temit LogUnbondRequested(msg.sender, id, bondState.willUnlock, now);\n\t}\n\n\tfunction unbondInternal(BondLibrary.Bond memory bond, bytes32 id, BondState storage bondState) internal {\n\t\tuint amount = calcWithdrawAmount(bond, bondState.slashedAtStart);\n\t\tuint toBurn = bond.amount - amount;\n\t\tdelete bonds[id];\n\t\tSafeERC20.transfer(tokenAddr, msg.sender, amount);\n\t\tif (toBurn > 0) SafeERC20.transfer(tokenAddr, BURN_ADDR, toBurn);\n\t\temit LogUnbonded(msg.sender, id, now);\n\t}\n\n\tfunction unbond(BondLibrary.Bond memory bond) public {\n\t\tbytes32 id = bond.hash(msg.sender);\n\t\tBondState storage bondState = bonds[id];\n\t\trequire(bondState.willUnlock > 0 && now > bondState.willUnlock, 'BOND_NOT_UNLOCKED');\n\t\tunbondInternal(bond, id, bondState);\n\t}\n\n\tfunction replaceBond(BondLibrary.Bond memory bond, BondLibrary.Bond memory newBond) public {\n\t\tbytes32 id = bond.hash(msg.sender);\n\t\tBondState storage bondState = bonds[id];\n\t\t// We allow replacing the bond even if it's requested to be unbonded, so that you can re-bond\n\t\trequire(bondState.active, 'BOND_NOT_ACTIVE');\n\t\trequire(newBond.poolId == bond.poolId, 'POOL_ID_DIFFERENT');\n\t\trequire(newBond.amount >= calcWithdrawAmount(bond, bondState.slashedAtStart), 'NEW_BOND_SMALLER');\n\t\tunbondInternal(bond, id, bondState);\n\t\taddBond(newBond);\n\t}\n\n\tfunction getWithdrawAmount(address owner, BondLibrary.Bond memory bond) public view returns (uint) {\n\t\tBondState storage bondState = bonds[bond.hash(owner)];\n\t\tif (!bondState.active) return 0;\n\t\treturn calcWithdrawAmount(bond, bondState.slashedAtStart);\n\t}\n\n\tfunction calcWithdrawAmount(BondLibrary.Bond memory bond, uint64 slashedAtStart) internal view returns (uint) {\n\t\treturn bond.amount\n\t\t\t.mul(MAX_SLASH.sub(slashPoints[bond.poolId]))\n\t\t\t.div(MAX_SLASH.sub(uint(slashedAtStart)));\n\t}\n}\n",
  "sourcePath": "/Users/omidiora/Sites/nodejs/adex-protocol-eth/contracts/Staking.sol",
  "compiler": {
    "name": "solc",
    "version": "0.6.12+commit.27d51765.Emscripten.clang"
  },
  "schemaVersion": "3.2.3",
  "updatedAt": "2020-09-22T12:24:43.202Z",
  "devdoc": {
    "kind": "dev",
    "methods": {},
    "version": 1
  },
  "userdoc": {
    "kind": "user",
    "methods": {},
    "version": 1
  }
}